{
  "address": "0xe7f1725E7734CE288F8367e1Bb143E90bb3F0512",
  "abi": [
    {
      "inputs": [
        {
          "internalType": "uint256",
          "name": "_maxNumberOfNfts",
          "type": "uint256"
        },
        {
          "internalType": "uint256",
          "name": "_price",
          "type": "uint256"
        },
        {
          "internalType": "address",
          "name": "whitelistContractAddress",
          "type": "address"
        },
        {
          "internalType": "string",
          "name": "imageSvg",
          "type": "string"
        }
      ],
      "stateMutability": "nonpayable",
      "type": "constructor"
    },
    {
      "inputs": [],
      "name": "Nft__AlreadyOwned",
      "type": "error"
    },
    {
      "inputs": [],
      "name": "Nft__ExceededMaxSupply",
      "type": "error"
    },
    {
      "inputs": [],
      "name": "Nft__NotEnoughETH",
      "type": "error"
    },
    {
      "inputs": [],
      "name": "Nft__URI_FOR_NONEXISTENCE_TOKEN",
      "type": "error"
    },
    {
      "anonymous": false,
      "inputs": [
        {
          "indexed": true,
          "internalType": "address",
          "name": "owner",
          "type": "address"
        },
        {
          "indexed": true,
          "internalType": "address",
          "name": "approved",
          "type": "address"
        },
        {
          "indexed": true,
          "internalType": "uint256",
          "name": "tokenId",
          "type": "uint256"
        }
      ],
      "name": "Approval",
      "type": "event"
    },
    {
      "anonymous": false,
      "inputs": [
        {
          "indexed": true,
          "internalType": "address",
          "name": "owner",
          "type": "address"
        },
        {
          "indexed": true,
          "internalType": "address",
          "name": "operator",
          "type": "address"
        },
        {
          "indexed": false,
          "internalType": "bool",
          "name": "approved",
          "type": "bool"
        }
      ],
      "name": "ApprovalForAll",
      "type": "event"
    },
    {
      "anonymous": false,
      "inputs": [
        {
          "indexed": true,
          "internalType": "address",
          "name": "previousOwner",
          "type": "address"
        },
        {
          "indexed": true,
          "internalType": "address",
          "name": "newOwner",
          "type": "address"
        }
      ],
      "name": "OwnershipTransferred",
      "type": "event"
    },
    {
      "anonymous": false,
      "inputs": [
        {
          "indexed": true,
          "internalType": "address",
          "name": "from",
          "type": "address"
        },
        {
          "indexed": true,
          "internalType": "address",
          "name": "to",
          "type": "address"
        },
        {
          "indexed": true,
          "internalType": "uint256",
          "name": "tokenId",
          "type": "uint256"
        }
      ],
      "name": "Transfer",
      "type": "event"
    },
    {
      "anonymous": false,
      "inputs": [
        {
          "indexed": true,
          "internalType": "address",
          "name": "minter",
          "type": "address"
        },
        {
          "indexed": true,
          "internalType": "uint256",
          "name": "tokenId",
          "type": "uint256"
        }
      ],
      "name": "itemMinted",
      "type": "event"
    },
    {
      "inputs": [
        {
          "internalType": "address",
          "name": "to",
          "type": "address"
        },
        {
          "internalType": "uint256",
          "name": "tokenId",
          "type": "uint256"
        }
      ],
      "name": "approve",
      "outputs": [],
      "stateMutability": "nonpayable",
      "type": "function"
    },
    {
      "inputs": [
        {
          "internalType": "address",
          "name": "owner",
          "type": "address"
        }
      ],
      "name": "balanceOf",
      "outputs": [
        {
          "internalType": "uint256",
          "name": "",
          "type": "uint256"
        }
      ],
      "stateMutability": "view",
      "type": "function"
    },
    {
      "inputs": [
        {
          "internalType": "uint256",
          "name": "tokenId",
          "type": "uint256"
        }
      ],
      "name": "getApproved",
      "outputs": [
        {
          "internalType": "address",
          "name": "",
          "type": "address"
        }
      ],
      "stateMutability": "view",
      "type": "function"
    },
    {
      "inputs": [],
      "name": "getImageUri",
      "outputs": [
        {
          "internalType": "string",
          "name": "",
          "type": "string"
        }
      ],
      "stateMutability": "view",
      "type": "function"
    },
    {
      "inputs": [],
      "name": "getMaxNumberOfTokens",
      "outputs": [
        {
          "internalType": "uint256",
          "name": "",
          "type": "uint256"
        }
      ],
      "stateMutability": "view",
      "type": "function"
    },
    {
      "inputs": [],
      "name": "getPrice",
      "outputs": [
        {
          "internalType": "uint256",
          "name": "",
          "type": "uint256"
        }
      ],
      "stateMutability": "view",
      "type": "function"
    },
    {
      "inputs": [],
      "name": "getReservedTokens",
      "outputs": [
        {
          "internalType": "uint256",
          "name": "",
          "type": "uint256"
        }
      ],
      "stateMutability": "view",
      "type": "function"
    },
    {
      "inputs": [],
      "name": "getWhitelistAddress",
      "outputs": [
        {
          "internalType": "contract Whitelist",
          "name": "",
          "type": "address"
        }
      ],
      "stateMutability": "view",
      "type": "function"
    },
    {
      "inputs": [
        {
          "internalType": "address",
          "name": "owner",
          "type": "address"
        },
        {
          "internalType": "address",
          "name": "operator",
          "type": "address"
        }
      ],
      "name": "isApprovedForAll",
      "outputs": [
        {
          "internalType": "bool",
          "name": "",
          "type": "bool"
        }
      ],
      "stateMutability": "view",
      "type": "function"
    },
    {
      "inputs": [],
      "name": "mint",
      "outputs": [],
      "stateMutability": "payable",
      "type": "function"
    },
    {
      "inputs": [],
      "name": "name",
      "outputs": [
        {
          "internalType": "string",
          "name": "",
          "type": "string"
        }
      ],
      "stateMutability": "view",
      "type": "function"
    },
    {
      "inputs": [],
      "name": "owner",
      "outputs": [
        {
          "internalType": "address",
          "name": "",
          "type": "address"
        }
      ],
      "stateMutability": "view",
      "type": "function"
    },
    {
      "inputs": [
        {
          "internalType": "uint256",
          "name": "tokenId",
          "type": "uint256"
        }
      ],
      "name": "ownerOf",
      "outputs": [
        {
          "internalType": "address",
          "name": "",
          "type": "address"
        }
      ],
      "stateMutability": "view",
      "type": "function"
    },
    {
      "inputs": [],
      "name": "renounceOwnership",
      "outputs": [],
      "stateMutability": "nonpayable",
      "type": "function"
    },
    {
      "inputs": [],
      "name": "reservedTokens",
      "outputs": [
        {
          "internalType": "uint256",
          "name": "",
          "type": "uint256"
        }
      ],
      "stateMutability": "view",
      "type": "function"
    },
    {
      "inputs": [],
      "name": "reservedTokensClaimed",
      "outputs": [
        {
          "internalType": "uint256",
          "name": "",
          "type": "uint256"
        }
      ],
      "stateMutability": "view",
      "type": "function"
    },
    {
      "inputs": [
        {
          "internalType": "address",
          "name": "from",
          "type": "address"
        },
        {
          "internalType": "address",
          "name": "to",
          "type": "address"
        },
        {
          "internalType": "uint256",
          "name": "tokenId",
          "type": "uint256"
        }
      ],
      "name": "safeTransferFrom",
      "outputs": [],
      "stateMutability": "nonpayable",
      "type": "function"
    },
    {
      "inputs": [
        {
          "internalType": "address",
          "name": "from",
          "type": "address"
        },
        {
          "internalType": "address",
          "name": "to",
          "type": "address"
        },
        {
          "internalType": "uint256",
          "name": "tokenId",
          "type": "uint256"
        },
        {
          "internalType": "bytes",
          "name": "data",
          "type": "bytes"
        }
      ],
      "name": "safeTransferFrom",
      "outputs": [],
      "stateMutability": "nonpayable",
      "type": "function"
    },
    {
      "inputs": [
        {
          "internalType": "address",
          "name": "operator",
          "type": "address"
        },
        {
          "internalType": "bool",
          "name": "approved",
          "type": "bool"
        }
      ],
      "name": "setApprovalForAll",
      "outputs": [],
      "stateMutability": "nonpayable",
      "type": "function"
    },
    {
      "inputs": [
        {
          "internalType": "bytes4",
          "name": "interfaceId",
          "type": "bytes4"
        }
      ],
      "name": "supportsInterface",
      "outputs": [
        {
          "internalType": "bool",
          "name": "",
          "type": "bool"
        }
      ],
      "stateMutability": "view",
      "type": "function"
    },
    {
      "inputs": [
        {
          "internalType": "string",
          "name": "_svg",
          "type": "string"
        }
      ],
      "name": "svgToImageURI",
      "outputs": [
        {
          "internalType": "string",
          "name": "",
          "type": "string"
        }
      ],
      "stateMutability": "pure",
      "type": "function"
    },
    {
      "inputs": [],
      "name": "symbol",
      "outputs": [
        {
          "internalType": "string",
          "name": "",
          "type": "string"
        }
      ],
      "stateMutability": "view",
      "type": "function"
    },
    {
      "inputs": [
        {
          "internalType": "uint256",
          "name": "index",
          "type": "uint256"
        }
      ],
      "name": "tokenByIndex",
      "outputs": [
        {
          "internalType": "uint256",
          "name": "",
          "type": "uint256"
        }
      ],
      "stateMutability": "view",
      "type": "function"
    },
    {
      "inputs": [],
      "name": "tokenCounter",
      "outputs": [
        {
          "internalType": "uint256",
          "name": "",
          "type": "uint256"
        }
      ],
      "stateMutability": "view",
      "type": "function"
    },
    {
      "inputs": [
        {
          "internalType": "address",
          "name": "owner",
          "type": "address"
        },
        {
          "internalType": "uint256",
          "name": "index",
          "type": "uint256"
        }
      ],
      "name": "tokenOfOwnerByIndex",
      "outputs": [
        {
          "internalType": "uint256",
          "name": "",
          "type": "uint256"
        }
      ],
      "stateMutability": "view",
      "type": "function"
    },
    {
      "inputs": [
        {
          "internalType": "uint256",
          "name": "_tokenId",
          "type": "uint256"
        }
      ],
      "name": "tokenURI",
      "outputs": [
        {
          "internalType": "string",
          "name": "",
          "type": "string"
        }
      ],
      "stateMutability": "view",
      "type": "function"
    },
    {
      "inputs": [],
      "name": "totalSupply",
      "outputs": [
        {
          "internalType": "uint256",
          "name": "",
          "type": "uint256"
        }
      ],
      "stateMutability": "view",
      "type": "function"
    },
    {
      "inputs": [
        {
          "internalType": "address",
          "name": "from",
          "type": "address"
        },
        {
          "internalType": "address",
          "name": "to",
          "type": "address"
        },
        {
          "internalType": "uint256",
          "name": "tokenId",
          "type": "uint256"
        }
      ],
      "name": "transferFrom",
      "outputs": [],
      "stateMutability": "nonpayable",
      "type": "function"
    },
    {
      "inputs": [
        {
          "internalType": "address",
          "name": "newOwner",
          "type": "address"
        }
      ],
      "name": "transferOwnership",
      "outputs": [],
      "stateMutability": "nonpayable",
      "type": "function"
    },
    {
      "inputs": [],
      "name": "withdraw",
      "outputs": [],
      "stateMutability": "nonpayable",
      "type": "function"
    }
  ],
  "transactionHash": "0xddc2eb81f8b4e08289a731d1ca5beb4dfb32fbfdb8084e32b0e69b5caa5c51c2",
  "args": [
    20,
    "10000000000000000",
    "0x5FbDB2315678afecb367f032d93F642f64180aa3",
    "<!DOCTYPE svg PUBLIC \"-//W3C//DTD SVG 1.1//EN\" \"http://www.w3.org/Graphics/SVG/1.1/DTD/svg11.dtd\">\n\r<!-- Uploaded to: SVG Repo, www.svgrepo.com, Transformed by: SVG Repo Mixer Tools -->\n<svg width=\"800px\" height=\"800px\" viewBox=\"-102.4 -102.4 1228.80 1228.80\" class=\"icon\" version=\"1.1\" xmlns=\"http://www.w3.org/2000/svg\" fill=\"#000000\" transform=\"matrix(-1, 0, 0, 1, 0, 0)rotate(0)\" stroke=\"#000000\" stroke-width=\"0.01024\">\n\r<g id=\"SVGRepo_bgCarrier\" stroke-width=\"0\"/>\n\r<g id=\"SVGRepo_tracerCarrier\" stroke-linecap=\"round\" stroke-linejoin=\"round\" stroke=\"#CCCCCC\" stroke-width=\"2.048\"/>\n\r<g id=\"SVGRepo_iconCarrier\">\n\r<path d=\"M913.88 548.4c-66.14 35.43-141.83-7.68-141.83-7.68-112.76-53.91-246.31-55.82-246.31-55.82-34.09-2.34-25.47-17.51-20.69-25.88 0.73-1.27 1.74-2.36 2.59-3.56a187.06 187.06 0 0 0 34.17-108.08c0-103.78-84.13-187.92-187.92-187.92C251 159.47 167.37 242.24 166 344.87c-1 3.81-42.28 9.32-73-5.06-40-18.71-25.08 73.65 42.35 95.45l-2.31-0.1c-28.06-1.52-30.8 7.68-30.8 7.68s-16.14 29.75 83.13 38.37c31.39 2.72 35.71 8.11 42 16.64 11.92 16.14 3.57 39.25-12.15 59-44.53 55.77-71.84 180.68 49.78 270.85 103.12 76.47 377.65 79.95 497.37-15.13 108-85.76 156.72-170.47 185.79-241.14 3.9-9.54 31.84-58.43-34.28-23.03z\" fill=\"#DFEDFF\"/>\n\r<path d=\"M497.6 892c-45.54 0-90.26-4.72-129.91-13.76-44.48-10.13-81.54-25.54-107.18-44.55-51.15-37.93-81.9-86.48-88.93-140.4-7.75-59.47 14.44-111.93 37.79-141.21 5.94-7.45 24.37-33.06 12-49.83-5.31-7.2-8.24-11.16-36.63-13.62-49.83-4.32-79.54-14.77-88.3-31A20 20 0 0 1 95.31 440c1-2.48 3.9-7 12.58-9.9-25-17-39.75-43.45-43.46-65.14-2.49-14.57 0.26-25.73 7.75-31.43 4.34-3.31 12-6.08 24-0.48 22.57 10.56 52.33 9.36 62.45 7.08A195.41 195.41 0 0 1 353.9 152c107.75 0 195.42 87.66 195.42 195.42a194.18 194.18 0 0 1-35.54 112.4c-0.39 0.55-0.8 1.09-1.22 1.62a14.24 14.24 0 0 0-1 1.35c-1.33 2.32-4.44 7.76-3.45 9.6 0.09 0.16 2.3 4 18 5.07 3.19 0.06 35.67 0.78 81.68 7.77 43.83 6.66 108.47 20.53 167.55 48.77l0.48 0.25c0.72 0.41 73 40.58 134.58 7.58l3.54 6.61-3.54-6.61c26.78-14.35 41.69-17.16 49.86-9.43 10 9.45 1.46 27.71-3.64 38.63-0.64 1.38-1.2 2.56-1.5 3.3C930.2 634.73 883.66 725.8 767 818.44c-29.48 23.42-68.66 41.78-116.44 54.6-43.33 11.62-92.79 18.16-143 18.92q-4.99 0.04-9.96 0.04zM108.93 446.26c-0.19 0.58-0.51 2.28 1 4.7 3.12 5.13 16.77 17.6 76.12 22.75 31.67 2.75 39.06 8.37 47.4 19.66 12.64 17.12 8 42.58-12.32 68.09-21.43 26.87-41.79 75.1-34.65 129.91a171.55 171.55 0 0 0 23.39 66.51c14.09 23.45 34.14 44.91 59.6 63.79 48 35.59 139.14 56.78 237.88 55.29 49-0.74 97.21-7.11 139.36-18.41 45.79-12.28 83.13-29.73 111-51.86C871.59 716.23 917 627.47 941.2 568.58c0.43-1.06 1-2.33 1.78-3.94a113.36 113.36 0 0 0 5.47-13.25c1.59-5 1.45-7.32 1.31-8.1-1.55-0.37-8.86-0.86-32.33 11.71-28.67 15.36-63.59 18.86-101 10.14a197.41 197.41 0 0 1-47.86-17.77c-109.85-52.44-241.64-55-243-55h-0.4c-16.57-1.14-26.21-5.26-30.34-13-4.9-9.16 0.67-18.89 3.66-24.12a25.75 25.75 0 0 1 2.2-3.16c0.26-0.33 0.52-0.66 0.76-1a179.26 179.26 0 0 0 32.8-103.76C534.32 247.9 453.38 167 353.9 167a180.41 180.41 0 0 0-180.38 178 7.5 7.5 0 0 1-0.25 1.83 9.3 9.3 0 0 1-5.5 6c-9.4 4.38-48.35 7.63-77.94-6.22-3.92-1.83-7.12-2.27-8.56-1.18-2.11 1.61-3.65 7.6-2.05 17 3.4 19.92 21.78 53.87 58.44 65.72a7.5 7.5 0 0 1-2.66 14.59l-2.31-0.1c-17.46-0.94-22.63 2.51-23.63 3.37z m-0.09 0.14z\" fill=\"#66A9F7\"/>\n\r<path d=\"M393.54 600.36a2.5 2.5 0 0 1-0.35-5c0.05 0 5.5-0.79 14.94-1.9a2.5 2.5 0 0 1 0.58 5c-9.37 1.1-14.76 1.87-14.82 1.88zM550.28 786.86c-3.57 0-7.16-0.05-10.67-0.16a2.5 2.5 0 1 1 0.15-5c9.75 0.29 19.84 0.17 29.92-0.36a2.5 2.5 0 0 1 0.26 5c-6.58 0.35-13.2 0.52-19.66 0.52z m-40.63-2.39h-0.3a301.55 301.55 0 0 1-29.93-5.15 2.5 2.5 0 0 1 1.1-4.88 296.47 296.47 0 0 0 29.43 5.06 2.5 2.5 0 0 1-0.3 5z m90.17-0.83a2.5 2.5 0 0 1-0.31-5 420.3 420.3 0 0 0 29.56-4.86 2.5 2.5 0 0 1 1 4.9c-9.89 2-20 3.65-29.92 4.92z m59.05-11.93a2.5 2.5 0 0 1-0.68-4.91c9.47-2.67 14.94-4.66 15-4.68s5.09-2 13.08-5.51a2.5 2.5 0 0 1 2 4.58c-8.1 3.56-13.28 5.59-13.33 5.61-0.28 0.1-5.73 2.09-15.4 4.82a2.49 2.49 0 0 1-0.67 0.09zM451 771.14a2.5 2.5 0 0 1-0.82-0.14 252.81 252.81 0 0 1-28.09-11.65 2.5 2.5 0 1 1 2.19-4.49 247.67 247.67 0 0 0 27.53 11.42 2.5 2.5 0 0 1-0.82 4.86z m263.58-22.69a2.5 2.5 0 0 1-1.14-4.73c9.37-4.78 18.21-9.68 26.25-14.54a2.5 2.5 0 0 1 2.59 4.28c-8.15 4.92-17.09 9.87-26.56 14.71a2.49 2.49 0 0 1-1.14 0.28zM397 744.72a2.49 2.49 0 0 1-1.37-0.41 239.3 239.3 0 0 1-24.3-18.31 2.5 2.5 0 0 1 3.25-3.8 234.35 234.35 0 0 0 23.8 17.91 2.5 2.5 0 0 1-1.37 4.59z m369-27.78a2.5 2.5 0 0 1-1.52-4.48 135.63 135.63 0 0 0 21.63-20.14 2.5 2.5 0 0 1 3.84 3.2 140.53 140.53 0 0 1-22.43 20.91 2.49 2.49 0 0 1-1.52 0.51z m34.69-47.28h-0.2a2.5 2.5 0 0 1-2.29-2.69c0.06-0.75 0.09-1.5 0.09-2.24 0-7.94-3.54-15.6-10.52-22.75a2.5 2.5 0 1 1 3.58-3.49c7.92 8.12 11.94 16.95 11.94 26.24 0 0.87 0 1.76-0.11 2.64a2.5 2.5 0 0 1-2.51 2.28z m-35.75-44.08a2.49 2.49 0 0 1-1.14-0.28l-1.44-0.73a224.37 224.37 0 0 0-26-10.88A2.5 2.5 0 0 1 738 609a229.39 229.39 0 0 1 26.55 11.13l1.49 0.75a2.5 2.5 0 0 1-1.14 4.73z m-56.63-20.28a2.5 2.5 0 0 1-0.6-0.07c-9.21-2.27-19.07-4.32-29.33-6.1a2.5 2.5 0 0 1 0.85-4.93c10.37 1.79 20.35 3.87 29.67 6.17a2.5 2.5 0 0 1-0.6 4.93z m-269.93-10a2.5 2.5 0 0 1-0.23-5c9.94-0.92 20.07-1.74 30.09-2.44a2.5 2.5 0 0 1 0.35 5c-10 0.7-20.07 1.51-30 2.43z m210.6-0.46h-0.29c-9.56-1.12-19.62-2.06-29.9-2.81a2.5 2.5 0 0 1 0.36-5c10.35 0.75 20.49 1.71 30.12 2.83a2.5 2.5 0 0 1-0.29 5z m-150.48-3.69a2.5 2.5 0 0 1-0.12-5c10.16-0.48 20.31-0.83 30.18-1a2.5 2.5 0 1 1 0.11 5c-9.83 0.22-19.94 0.57-30.05 1z m90.38-0.71h-0.09c-9.73-0.35-19.84-0.55-30-0.6a2.5 2.5 0 0 1 0-5c10.26 0.05 20.42 0.26 30.2 0.61a2.5 2.5 0 0 1-0.09 5zM351.56 705.86a2.49 2.49 0 0 1-1.85-0.81c-3.37-3.69-6.69-7.55-9.88-11.48a2.5 2.5 0 1 1 3.88-3.15c3.13 3.86 6.39 7.65 9.69 11.26a2.5 2.5 0 0 1-1.85 4.19z\" fill=\"#66A9F7\"/>\n\r</g>\n\r</svg>"
  ],
  "numDeployments": 1,
  "solcInputHash": "72ec2ebf688974aae55fad03648b55d6",
  "bytecode": "0x60c06040523480156200001157600080fd5b5060405162004c3038038062004c3083398181016040528101906200003791906200072f565b6040518060400160405280600681526020017f4475636b696f00000000000000000000000000000000000000000000000000008152506040518060400160405280600381526020017f44434b00000000000000000000000000000000000000000000000000000000008152508160009081620000b4919062000a01565b508060019081620000c6919062000a01565b505050620000e9620000dd6200020860201b60201c565b6200021060201b60201c565b83608081815250508260a0818152505081600c60006101000a81548173ffffffffffffffffffffffffffffffffffffffff021916908373ffffffffffffffffffffffffffffffffffffffff1602179055506200014b81620002d660201b60201c565b600f90816200015b919062000a01565b506000600b81905550600c60009054906101000a900473ffffffffffffffffffffffffffffffffffffffff1673ffffffffffffffffffffffffffffffffffffffff16636f01c0b46040518163ffffffff1660e01b8152600401602060405180830381865afa158015620001d2573d6000803e3d6000fd5b505050506040513d601f19601f82011682018060405250810190620001f8919062000ae8565b600d819055505050505062000cb9565b600033905090565b6000600a60009054906101000a900473ffffffffffffffffffffffffffffffffffffffff16905081600a60006101000a81548173ffffffffffffffffffffffffffffffffffffffff021916908373ffffffffffffffffffffffffffffffffffffffff1602179055508173ffffffffffffffffffffffffffffffffffffffff168173ffffffffffffffffffffffffffffffffffffffff167f8be0079c531659141344cd1fd0a4f28419497f9722a3daafe3b4186f6b6457e060405160405180910390a35050565b606060006200030c83604051602001620002f1919062000b5c565b6040516020818303038152906040526200036f60201b60201c565b90506040518060400160405280601a81526020017f646174613a696d6167652f7376672b786d6c3b6261736536342c000000000000815250816040516020016200035892919062000b75565b604051602081830303815290604052915050919050565b606060008251036200039357604051806020016040528060008152509050620004f7565b600060405180606001604052806040815260200162004bf06040913990506000600360028551620003c5919062000bcc565b620003d1919062000c36565b6004620003df919062000c6e565b90506000602082620003f2919062000bcc565b67ffffffffffffffff8111156200040e576200040d620005cb565b5b6040519080825280601f01601f191660200182016040528015620004415781602001600182028036833780820191505090505b509050818152600183018586518101602084015b81831015620004b2576003830192508251603f8160121c168501518253600182019150603f81600c1c168501518253600182019150603f8160061c168501518253600182019150603f811685015182536001820191505062000455565b600389510660018114620004cf5760028114620004e057620004eb565b613d3d60f01b6002830352620004eb565b603d60f81b60018303525b50505050508093505050505b919050565b6000604051905090565b600080fd5b600080fd5b6000819050919050565b620005258162000510565b81146200053157600080fd5b50565b60008151905062000545816200051a565b92915050565b600073ffffffffffffffffffffffffffffffffffffffff82169050919050565b600062000578826200054b565b9050919050565b6200058a816200056b565b81146200059657600080fd5b50565b600081519050620005aa816200057f565b92915050565b600080fd5b600080fd5b6000601f19601f8301169050919050565b7f4e487b7100000000000000000000000000000000000000000000000000000000600052604160045260246000fd5b6200060582620005ba565b810181811067ffffffffffffffff82111715620006275762000626620005cb565b5b80604052505050565b60006200063c620004fc565b90506200064a8282620005fa565b919050565b600067ffffffffffffffff8211156200066d576200066c620005cb565b5b6200067882620005ba565b9050602081019050919050565b60005b83811015620006a557808201518184015260208101905062000688565b60008484015250505050565b6000620006c8620006c2846200064f565b62000630565b905082815260208101848484011115620006e757620006e6620005b5565b5b620006f484828562000685565b509392505050565b600082601f830112620007145762000713620005b0565b5b815162000726848260208601620006b1565b91505092915050565b600080600080608085870312156200074c576200074b62000506565b5b60006200075c8782880162000534565b94505060206200076f8782880162000534565b9350506040620007828782880162000599565b925050606085015167ffffffffffffffff811115620007a657620007a56200050b565b5b620007b487828801620006fc565b91505092959194509250565b600081519050919050565b7f4e487b7100000000000000000000000000000000000000000000000000000000600052602260045260246000fd5b600060028204905060018216806200081357607f821691505b602082108103620008295762000828620007cb565b5b50919050565b60008190508160005260206000209050919050565b60006020601f8301049050919050565b600082821b905092915050565b600060088302620008937fffffffffffffffffffffffffffffffffffffffffffffffffffffffffffffffff8262000854565b6200089f868362000854565b95508019841693508086168417925050509392505050565b6000819050919050565b6000620008e2620008dc620008d68462000510565b620008b7565b62000510565b9050919050565b6000819050919050565b620008fe83620008c1565b620009166200090d82620008e9565b84845462000861565b825550505050565b600090565b6200092d6200091e565b6200093a818484620008f3565b505050565b5b8181101562000962576200095660008262000923565b60018101905062000940565b5050565b601f821115620009b1576200097b816200082f565b620009868462000844565b8101602085101562000996578190505b620009ae620009a58562000844565b8301826200093f565b50505b505050565b600082821c905092915050565b6000620009d660001984600802620009b6565b1980831691505092915050565b6000620009f18383620009c3565b9150826002028217905092915050565b62000a0c82620007c0565b67ffffffffffffffff81111562000a285762000a27620005cb565b5b62000a348254620007fa565b62000a4182828562000966565b600060209050601f83116001811462000a79576000841562000a64578287015190505b62000a708582620009e3565b86555062000ae0565b601f19841662000a89866200082f565b60005b8281101562000ab35784890151825560018201915060208501945060208101905062000a8c565b8683101562000ad3578489015162000acf601f891682620009c3565b8355505b6001600288020188555050505b505050505050565b60006020828403121562000b015762000b0062000506565b5b600062000b118482850162000534565b91505092915050565b600081905092915050565b600062000b3282620007c0565b62000b3e818562000b1a565b935062000b5081856020860162000685565b80840191505092915050565b600062000b6a828462000b25565b915081905092915050565b600062000b83828562000b25565b915062000b91828462000b25565b91508190509392505050565b7f4e487b7100000000000000000000000000000000000000000000000000000000600052601160045260246000fd5b600062000bd98262000510565b915062000be68362000510565b925082820190508082111562000c015762000c0062000b9d565b5b92915050565b7f4e487b7100000000000000000000000000000000000000000000000000000000600052601260045260246000fd5b600062000c438262000510565b915062000c508362000510565b92508262000c635762000c6262000c07565b5b828204905092915050565b600062000c7b8262000510565b915062000c888362000510565b925082820262000c988162000510565b9150828204841483151762000cb25762000cb162000b9d565b5b5092915050565b60805160a051613efc62000cf460003960008181610ab101528181610b3c01526111f70152600081816109b6015261113d0152613efc6000f3fe6080604052600436106101cd5760003560e01c806370a08231116100f7578063a16f377411610095578063d082e38111610064578063d082e3811461066d578063e985e9c514610698578063f2fde38b146106d5578063fdddd2cd146106fe576101cd565b8063a16f3774146105b3578063a22cb465146105de578063b88d4fde14610607578063c87b56dd14610630576101cd565b8063915eb973116100d1578063915eb97314610507578063944b7c3f1461053257806395d89b411461055d57806398d5fdca14610588576101cd565b806370a0823114610488578063715018a6146104c55780638da5cb5b146104dc576101cd565b806323b872dd1161016f57806342842e0e1161013e57806342842e0e146103ba57806346bd9a66146103e35780634f6ccce71461040e5780636352211e1461044b576101cd565b806323b872dd146103005780632f745c591461032957806330d871c6146103665780633ccfd60b146103a3576101cd565b8063095ea7b3116101ab578063095ea7b3146102775780631249c58b146102a057806315a55347146102aa57806318160ddd146102d5576101cd565b806301ffc9a7146101d257806306fdde031461020f578063081812fc1461023a575b600080fd5b3480156101de57600080fd5b506101f960048036038101906101f491906128a3565b610729565b60405161020691906128eb565b60405180910390f35b34801561021b57600080fd5b506102246107a3565b6040516102319190612996565b60405180910390f35b34801561024657600080fd5b50610261600480360381019061025c91906129ee565b610835565b60405161026e9190612a5c565b60405180910390f35b34801561028357600080fd5b5061029e60048036038101906102999190612aa3565b61087b565b005b6102a8610992565b005b3480156102b657600080fd5b506102bf610c02565b6040516102cc9190612af2565b60405180910390f35b3480156102e157600080fd5b506102ea610c08565b6040516102f79190612af2565b60405180910390f35b34801561030c57600080fd5b5061032760048036038101906103229190612b0d565b610c15565b005b34801561033557600080fd5b50610350600480360381019061034b9190612aa3565b610c75565b60405161035d9190612af2565b60405180910390f35b34801561037257600080fd5b5061038d60048036038101906103889190612c95565b610d1a565b60405161039a9190612996565b60405180910390f35b3480156103af57600080fd5b506103b8610da7565b005b3480156103c657600080fd5b506103e160048036038101906103dc9190612b0d565b610e71565b005b3480156103ef57600080fd5b506103f8610e91565b6040516104059190612996565b60405180910390f35b34801561041a57600080fd5b50610435600480360381019061043091906129ee565b610f23565b6040516104429190612af2565b60405180910390f35b34801561045757600080fd5b50610472600480360381019061046d91906129ee565b610f94565b60405161047f9190612a5c565b60405180910390f35b34801561049457600080fd5b506104af60048036038101906104aa9190612cde565b61101a565b6040516104bc9190612af2565b60405180910390f35b3480156104d157600080fd5b506104da6110d1565b005b3480156104e857600080fd5b506104f16110e5565b6040516104fe9190612a5c565b60405180910390f35b34801561051357600080fd5b5061051c61110f565b6040516105299190612d6a565b60405180910390f35b34801561053e57600080fd5b50610547611139565b6040516105549190612af2565b60405180910390f35b34801561056957600080fd5b50610572611161565b60405161057f9190612996565b60405180910390f35b34801561059457600080fd5b5061059d6111f3565b6040516105aa9190612af2565b60405180910390f35b3480156105bf57600080fd5b506105c861121b565b6040516105d59190612af2565b60405180910390f35b3480156105ea57600080fd5b5061060560048036038101906106009190612db1565b611225565b005b34801561061357600080fd5b5061062e60048036038101906106299190612e92565b61123b565b005b34801561063c57600080fd5b50610657600480360381019061065291906129ee565b61129d565b6040516106649190612996565b60405180910390f35b34801561067957600080fd5b5061068261133f565b60405161068f9190612af2565b60405180910390f35b3480156106a457600080fd5b506106bf60048036038101906106ba9190612f15565b611345565b6040516106cc91906128eb565b60405180910390f35b3480156106e157600080fd5b506106fc60048036038101906106f79190612cde565b6113d9565b005b34801561070a57600080fd5b5061071361145c565b6040516107209190612af2565b60405180910390f35b60007f780e9d63000000000000000000000000000000000000000000000000000000007bffffffffffffffffffffffffffffffffffffffffffffffffffffffff1916827bffffffffffffffffffffffffffffffffffffffffffffffffffffffff1916148061079c575061079b82611462565b5b9050919050565b6060600080546107b290612f84565b80601f01602080910402602001604051908101604052809291908181526020018280546107de90612f84565b801561082b5780601f106108005761010080835404028352916020019161082b565b820191906000526020600020905b81548152906001019060200180831161080e57829003601f168201915b5050505050905090565b600061084082611544565b6004600083815260200190815260200160002060009054906101000a900473ffffffffffffffffffffffffffffffffffffffff169050919050565b600061088682610f94565b90508073ffffffffffffffffffffffffffffffffffffffff168373ffffffffffffffffffffffffffffffffffffffff16036108f6576040517f08c379a00000000000000000000000000000000000000000000000000000000081526004016108ed90613027565b60405180910390fd5b8073ffffffffffffffffffffffffffffffffffffffff1661091561158f565b73ffffffffffffffffffffffffffffffffffffffff16148061094457506109438161093e61158f565b611345565b5b610983576040517f08c379a000000000000000000000000000000000000000000000000000000000815260040161097a906130b9565b60405180910390fd5b61098d8383611597565b505050565b600e54600d546109a0610c08565b6109aa9190613108565b6109b4919061313c565b7f00000000000000000000000000000000000000000000000000000000000000001015610a0d576040517fd8e4cd9000000000000000000000000000000000000000000000000000000000815260040160405180910390fd5b600c60009054906101000a900473ffffffffffffffffffffffffffffffffffffffff1673ffffffffffffffffffffffffffffffffffffffff1662ffead1336040518263ffffffff1660e01b8152600401610a679190612a5c565b602060405180830381865afa158015610a84573d6000803e3d6000fd5b505050506040513d601f19601f82011682018060405250810190610aa89190613185565b8015610ad357507f000000000000000000000000000000000000000000000000000000000000000034105b15610b39576000610ae33361101a565b03610b1a576040517fcdaf7b5500000000000000000000000000000000000000000000000000000000815260040160405180910390fd5b6001600e6000828254610b2d9190613108565b92505081905550610b94565b347f00000000000000000000000000000000000000000000000000000000000000001115610b93576040517f90df909d00000000000000000000000000000000000000000000000000000000815260040160405180910390fd5b5b6001600b6000828254610ba79190613108565b92505081905550610bba33600b54611650565b600b543373ffffffffffffffffffffffffffffffffffffffff167f8b012c10dbf77cc83b6a01aa5fff035faea091d7f5aca0aa0cd4f5518cd2d96a60405160405180910390a3565b600d5481565b6000600880549050905090565b610c26610c2061158f565b8261166e565b610c65576040517f08c379a0000000000000000000000000000000000000000000000000000000008152600401610c5c90613224565b60405180910390fd5b610c70838383611703565b505050565b6000610c808361101a565b8210610cc1576040517f08c379a0000000000000000000000000000000000000000000000000000000008152600401610cb8906132b6565b60405180910390fd5b600660008473ffffffffffffffffffffffffffffffffffffffff1673ffffffffffffffffffffffffffffffffffffffff168152602001908152602001600020600083815260200190815260200160002054905092915050565b60606000610d4683604051602001610d329190613312565b6040516020818303038152906040526119fc565b90506040518060400160405280601a81526020017f646174613a696d6167652f7376672b786d6c3b6261736536342c00000000000081525081604051602001610d90929190613329565b604051602081830303815290604052915050919050565b610daf611b74565b6000610db96110e5565b9050600047905060008273ffffffffffffffffffffffffffffffffffffffff1682604051610de69061337e565b60006040518083038185875af1925050503d8060008114610e23576040519150601f19603f3d011682016040523d82523d6000602084013e610e28565b606091505b5050905080610e6c576040517f08c379a0000000000000000000000000000000000000000000000000000000008152600401610e63906133df565b60405180910390fd5b505050565b610e8c8383836040518060200160405280600081525061123b565b505050565b6060600f8054610ea090612f84565b80601f0160208091040260200160405190810160405280929190818152602001828054610ecc90612f84565b8015610f195780601f10610eee57610100808354040283529160200191610f19565b820191906000526020600020905b815481529060010190602001808311610efc57829003601f168201915b5050505050905090565b6000610f2d610c08565b8210610f6e576040517f08c379a0000000000000000000000000000000000000000000000000000000008152600401610f6590613471565b60405180910390fd5b60088281548110610f8257610f81613491565b5b90600052602060002001549050919050565b600080610fa083611bf2565b9050600073ffffffffffffffffffffffffffffffffffffffff168173ffffffffffffffffffffffffffffffffffffffff1603611011576040517f08c379a00000000000000000000000000000000000000000000000000000000081526004016110089061350c565b60405180910390fd5b80915050919050565b60008073ffffffffffffffffffffffffffffffffffffffff168273ffffffffffffffffffffffffffffffffffffffff160361108a576040517f08c379a00000000000000000000000000000000000000000000000000000000081526004016110819061359e565b60405180910390fd5b600360008373ffffffffffffffffffffffffffffffffffffffff1673ffffffffffffffffffffffffffffffffffffffff168152602001908152602001600020549050919050565b6110d9611b74565b6110e36000611c2f565b565b6000600a60009054906101000a900473ffffffffffffffffffffffffffffffffffffffff16905090565b6000600c60009054906101000a900473ffffffffffffffffffffffffffffffffffffffff16905090565b60007f0000000000000000000000000000000000000000000000000000000000000000905090565b60606001805461117090612f84565b80601f016020809104026020016040519081016040528092919081815260200182805461119c90612f84565b80156111e95780601f106111be576101008083540402835291602001916111e9565b820191906000526020600020905b8154815290600101906020018083116111cc57829003601f168201915b5050505050905090565b60007f0000000000000000000000000000000000000000000000000000000000000000905090565b6000600d54905090565b61123761123061158f565b8383611cf5565b5050565b61124c61124661158f565b8361166e565b61128b576040517f08c379a000000000000000000000000000000000000000000000000000000000815260040161128290613224565b60405180910390fd5b61129784848484611e61565b50505050565b60606112a882611ebd565b6112de576040517fe772b41500000000000000000000000000000000000000000000000000000000815260040160405180910390fd5b6112e6611efe565b6113186112f16107a3565b600f6040516020016113049291906137f8565b6040516020818303038152906040526119fc565b604051602001611329929190613329565b6040516020818303038152906040529050919050565b600b5481565b6000600560008473ffffffffffffffffffffffffffffffffffffffff1673ffffffffffffffffffffffffffffffffffffffff16815260200190815260200160002060008373ffffffffffffffffffffffffffffffffffffffff1673ffffffffffffffffffffffffffffffffffffffff16815260200190815260200160002060009054906101000a900460ff16905092915050565b6113e1611b74565b600073ffffffffffffffffffffffffffffffffffffffff168173ffffffffffffffffffffffffffffffffffffffff1603611450576040517f08c379a0000000000000000000000000000000000000000000000000000000008152600401611447906138ba565b60405180910390fd5b61145981611c2f565b50565b600e5481565b60007f80ac58cd000000000000000000000000000000000000000000000000000000007bffffffffffffffffffffffffffffffffffffffffffffffffffffffff1916827bffffffffffffffffffffffffffffffffffffffffffffffffffffffff1916148061152d57507f5b5e139f000000000000000000000000000000000000000000000000000000007bffffffffffffffffffffffffffffffffffffffffffffffffffffffff1916827bffffffffffffffffffffffffffffffffffffffffffffffffffffffff1916145b8061153d575061153c82611f3b565b5b9050919050565b61154d81611ebd565b61158c576040517f08c379a00000000000000000000000000000000000000000000000000000000081526004016115839061350c565b60405180910390fd5b50565b600033905090565b816004600083815260200190815260200160002060006101000a81548173ffffffffffffffffffffffffffffffffffffffff021916908373ffffffffffffffffffffffffffffffffffffffff160217905550808273ffffffffffffffffffffffffffffffffffffffff1661160a83610f94565b73ffffffffffffffffffffffffffffffffffffffff167f8c5be1e5ebec7d5bd14f71427d1e84f3dd0314c0f7b2291e5b200ac8c7c3b92560405160405180910390a45050565b61166a828260405180602001604052806000815250611fa5565b5050565b60008061167a83610f94565b90508073ffffffffffffffffffffffffffffffffffffffff168473ffffffffffffffffffffffffffffffffffffffff1614806116bc57506116bb8185611345565b5b806116fa57508373ffffffffffffffffffffffffffffffffffffffff166116e284610835565b73ffffffffffffffffffffffffffffffffffffffff16145b91505092915050565b8273ffffffffffffffffffffffffffffffffffffffff1661172382610f94565b73ffffffffffffffffffffffffffffffffffffffff1614611779576040517f08c379a00000000000000000000000000000000000000000000000000000000081526004016117709061394c565b60405180910390fd5b600073ffffffffffffffffffffffffffffffffffffffff168273ffffffffffffffffffffffffffffffffffffffff16036117e8576040517f08c379a00000000000000000000000000000000000000000000000000000000081526004016117df906139de565b60405180910390fd5b6117f58383836001612000565b8273ffffffffffffffffffffffffffffffffffffffff1661181582610f94565b73ffffffffffffffffffffffffffffffffffffffff161461186b576040517f08c379a00000000000000000000000000000000000000000000000000000000081526004016118629061394c565b60405180910390fd5b6004600082815260200190815260200160002060006101000a81549073ffffffffffffffffffffffffffffffffffffffff02191690556001600360008573ffffffffffffffffffffffffffffffffffffffff1673ffffffffffffffffffffffffffffffffffffffff168152602001908152602001600020600082825403925050819055506001600360008473ffffffffffffffffffffffffffffffffffffffff1673ffffffffffffffffffffffffffffffffffffffff16815260200190815260200160002060008282540192505081905550816002600083815260200190815260200160002060006101000a81548173ffffffffffffffffffffffffffffffffffffffff021916908373ffffffffffffffffffffffffffffffffffffffff160217905550808273ffffffffffffffffffffffffffffffffffffffff168473ffffffffffffffffffffffffffffffffffffffff167fddf252ad1be2c89b69c2b068fc378daa952ba7f163c4a11628f55a4df523b3ef60405160405180910390a46119f7838383600161215e565b505050565b60606000825103611a1e57604051806020016040528060008152509050611b6f565b6000604051806060016040528060408152602001613e876040913990506000600360028551611a4d9190613108565b611a579190613a2d565b6004611a639190613a5e565b90506000602082611a749190613108565b67ffffffffffffffff811115611a8d57611a8c612b6a565b5b6040519080825280601f01601f191660200182016040528015611abf5781602001600182028036833780820191505090505b509050818152600183018586518101602084015b81831015611b2e576003830192508251603f8160121c168501518253600182019150603f81600c1c168501518253600182019150603f8160061c168501518253600182019150603f8116850151825360018201915050611ad3565b600389510660018114611b485760028114611b5857611b63565b613d3d60f01b6002830352611b63565b603d60f81b60018303525b50505050508093505050505b919050565b611b7c61158f565b73ffffffffffffffffffffffffffffffffffffffff16611b9a6110e5565b73ffffffffffffffffffffffffffffffffffffffff1614611bf0576040517f08c379a0000000000000000000000000000000000000000000000000000000008152600401611be790613aec565b60405180910390fd5b565b60006002600083815260200190815260200160002060009054906101000a900473ffffffffffffffffffffffffffffffffffffffff169050919050565b6000600a60009054906101000a900473ffffffffffffffffffffffffffffffffffffffff16905081600a60006101000a81548173ffffffffffffffffffffffffffffffffffffffff021916908373ffffffffffffffffffffffffffffffffffffffff1602179055508173ffffffffffffffffffffffffffffffffffffffff168173ffffffffffffffffffffffffffffffffffffffff167f8be0079c531659141344cd1fd0a4f28419497f9722a3daafe3b4186f6b6457e060405160405180910390a35050565b8173ffffffffffffffffffffffffffffffffffffffff168373ffffffffffffffffffffffffffffffffffffffff1603611d63576040517f08c379a0000000000000000000000000000000000000000000000000000000008152600401611d5a90613b58565b60405180910390fd5b80600560008573ffffffffffffffffffffffffffffffffffffffff1673ffffffffffffffffffffffffffffffffffffffff16815260200190815260200160002060008473ffffffffffffffffffffffffffffffffffffffff1673ffffffffffffffffffffffffffffffffffffffff16815260200190815260200160002060006101000a81548160ff0219169083151502179055508173ffffffffffffffffffffffffffffffffffffffff168373ffffffffffffffffffffffffffffffffffffffff167f17307eab39ab6107e8899845ad3d59bd9653f200f220920489ca2b5937696c3183604051611e5491906128eb565b60405180910390a3505050565b611e6c848484611703565b611e7884848484612164565b611eb7576040517f08c379a0000000000000000000000000000000000000000000000000000000008152600401611eae90613bea565b60405180910390fd5b50505050565b60008073ffffffffffffffffffffffffffffffffffffffff16611edf83611bf2565b73ffffffffffffffffffffffffffffffffffffffff1614159050919050565b60606040518060400160405280601d81526020017f646174613a6170706c69636174696f6e2f6a736f6e3b6261736536342c000000815250905090565b60007f01ffc9a7000000000000000000000000000000000000000000000000000000007bffffffffffffffffffffffffffffffffffffffffffffffffffffffff1916827bffffffffffffffffffffffffffffffffffffffffffffffffffffffff1916149050919050565b611faf83836122eb565b611fbc6000848484612164565b611ffb576040517f08c379a0000000000000000000000000000000000000000000000000000000008152600401611ff290613bea565b60405180910390fd5b505050565b61200c84848484612508565b6001811115612050576040517f08c379a000000000000000000000000000000000000000000000000000000000815260040161204790613c7c565b60405180910390fd5b6000829050600073ffffffffffffffffffffffffffffffffffffffff168573ffffffffffffffffffffffffffffffffffffffff1603612097576120928161250e565b6120d6565b8373ffffffffffffffffffffffffffffffffffffffff168573ffffffffffffffffffffffffffffffffffffffff16146120d5576120d48582612557565b5b5b600073ffffffffffffffffffffffffffffffffffffffff168473ffffffffffffffffffffffffffffffffffffffff160361211857612113816126c4565b612157565b8473ffffffffffffffffffffffffffffffffffffffff168473ffffffffffffffffffffffffffffffffffffffff1614612156576121558482612795565b5b5b5050505050565b50505050565b60006121858473ffffffffffffffffffffffffffffffffffffffff16612814565b156122de578373ffffffffffffffffffffffffffffffffffffffff1663150b7a026121ae61158f565b8786866040518563ffffffff1660e01b81526004016121d09493929190613cf1565b6020604051808303816000875af192505050801561220c57506040513d601f19601f820116820180604052508101906122099190613d52565b60015b61228e573d806000811461223c576040519150601f19603f3d011682016040523d82523d6000602084013e612241565b606091505b506000815103612286576040517f08c379a000000000000000000000000000000000000000000000000000000000815260040161227d90613bea565b60405180910390fd5b805181602001fd5b63150b7a0260e01b7bffffffffffffffffffffffffffffffffffffffffffffffffffffffff1916817bffffffffffffffffffffffffffffffffffffffffffffffffffffffff1916149150506122e3565b600190505b949350505050565b600073ffffffffffffffffffffffffffffffffffffffff168273ffffffffffffffffffffffffffffffffffffffff160361235a576040517f08c379a000000000000000000000000000000000000000000000000000000000815260040161235190613dcb565b60405180910390fd5b61236381611ebd565b156123a3576040517f08c379a000000000000000000000000000000000000000000000000000000000815260040161239a90613e37565b60405180910390fd5b6123b1600083836001612000565b6123ba81611ebd565b156123fa576040517f08c379a00000000000000000000000000000000000000000000000000000000081526004016123f190613e37565b60405180910390fd5b6001600360008473ffffffffffffffffffffffffffffffffffffffff1673ffffffffffffffffffffffffffffffffffffffff16815260200190815260200160002060008282540192505081905550816002600083815260200190815260200160002060006101000a81548173ffffffffffffffffffffffffffffffffffffffff021916908373ffffffffffffffffffffffffffffffffffffffff160217905550808273ffffffffffffffffffffffffffffffffffffffff16600073ffffffffffffffffffffffffffffffffffffffff167fddf252ad1be2c89b69c2b068fc378daa952ba7f163c4a11628f55a4df523b3ef60405160405180910390a461250460008383600161215e565b5050565b50505050565b6008805490506009600083815260200190815260200160002081905550600881908060018154018082558091505060019003906000526020600020016000909190919091505550565b600060016125648461101a565b61256e919061313c565b9050600060076000848152602001908152602001600020549050818114612653576000600660008673ffffffffffffffffffffffffffffffffffffffff1673ffffffffffffffffffffffffffffffffffffffff168152602001908152602001600020600084815260200190815260200160002054905080600660008773ffffffffffffffffffffffffffffffffffffffff1673ffffffffffffffffffffffffffffffffffffffff168152602001908152602001600020600084815260200190815260200160002081905550816007600083815260200190815260200160002081905550505b6007600084815260200190815260200160002060009055600660008573ffffffffffffffffffffffffffffffffffffffff1673ffffffffffffffffffffffffffffffffffffffff16815260200190815260200160002060008381526020019081526020016000206000905550505050565b600060016008805490506126d8919061313c565b905060006009600084815260200190815260200160002054905060006008838154811061270857612707613491565b5b90600052602060002001549050806008838154811061272a57612729613491565b5b90600052602060002001819055508160096000838152602001908152602001600020819055506009600085815260200190815260200160002060009055600880548061277957612778613e57565b5b6001900381819060005260206000200160009055905550505050565b60006127a08361101a565b905081600660008573ffffffffffffffffffffffffffffffffffffffff1673ffffffffffffffffffffffffffffffffffffffff168152602001908152602001600020600083815260200190815260200160002081905550806007600084815260200190815260200160002081905550505050565b6000808273ffffffffffffffffffffffffffffffffffffffff163b119050919050565b6000604051905090565b600080fd5b600080fd5b60007fffffffff0000000000000000000000000000000000000000000000000000000082169050919050565b6128808161284b565b811461288b57600080fd5b50565b60008135905061289d81612877565b92915050565b6000602082840312156128b9576128b8612841565b5b60006128c78482850161288e565b91505092915050565b60008115159050919050565b6128e5816128d0565b82525050565b600060208201905061290060008301846128dc565b92915050565b600081519050919050565b600082825260208201905092915050565b60005b83811015612940578082015181840152602081019050612925565b60008484015250505050565b6000601f19601f8301169050919050565b600061296882612906565b6129728185612911565b9350612982818560208601612922565b61298b8161294c565b840191505092915050565b600060208201905081810360008301526129b0818461295d565b905092915050565b6000819050919050565b6129cb816129b8565b81146129d657600080fd5b50565b6000813590506129e8816129c2565b92915050565b600060208284031215612a0457612a03612841565b5b6000612a12848285016129d9565b91505092915050565b600073ffffffffffffffffffffffffffffffffffffffff82169050919050565b6000612a4682612a1b565b9050919050565b612a5681612a3b565b82525050565b6000602082019050612a716000830184612a4d565b92915050565b612a8081612a3b565b8114612a8b57600080fd5b50565b600081359050612a9d81612a77565b92915050565b60008060408385031215612aba57612ab9612841565b5b6000612ac885828601612a8e565b9250506020612ad9858286016129d9565b9150509250929050565b612aec816129b8565b82525050565b6000602082019050612b076000830184612ae3565b92915050565b600080600060608486031215612b2657612b25612841565b5b6000612b3486828701612a8e565b9350506020612b4586828701612a8e565b9250506040612b56868287016129d9565b9150509250925092565b600080fd5b600080fd5b7f4e487b7100000000000000000000000000000000000000000000000000000000600052604160045260246000fd5b612ba28261294c565b810181811067ffffffffffffffff82111715612bc157612bc0612b6a565b5b80604052505050565b6000612bd4612837565b9050612be08282612b99565b919050565b600067ffffffffffffffff821115612c0057612bff612b6a565b5b612c098261294c565b9050602081019050919050565b82818337600083830152505050565b6000612c38612c3384612be5565b612bca565b905082815260208101848484011115612c5457612c53612b65565b5b612c5f848285612c16565b509392505050565b600082601f830112612c7c57612c7b612b60565b5b8135612c8c848260208601612c25565b91505092915050565b600060208284031215612cab57612caa612841565b5b600082013567ffffffffffffffff811115612cc957612cc8612846565b5b612cd584828501612c67565b91505092915050565b600060208284031215612cf457612cf3612841565b5b6000612d0284828501612a8e565b91505092915050565b6000819050919050565b6000612d30612d2b612d2684612a1b565b612d0b565b612a1b565b9050919050565b6000612d4282612d15565b9050919050565b6000612d5482612d37565b9050919050565b612d6481612d49565b82525050565b6000602082019050612d7f6000830184612d5b565b92915050565b612d8e816128d0565b8114612d9957600080fd5b50565b600081359050612dab81612d85565b92915050565b60008060408385031215612dc857612dc7612841565b5b6000612dd685828601612a8e565b9250506020612de785828601612d9c565b9150509250929050565b600067ffffffffffffffff821115612e0c57612e0b612b6a565b5b612e158261294c565b9050602081019050919050565b6000612e35612e3084612df1565b612bca565b905082815260208101848484011115612e5157612e50612b65565b5b612e5c848285612c16565b509392505050565b600082601f830112612e7957612e78612b60565b5b8135612e89848260208601612e22565b91505092915050565b60008060008060808587031215612eac57612eab612841565b5b6000612eba87828801612a8e565b9450506020612ecb87828801612a8e565b9350506040612edc878288016129d9565b925050606085013567ffffffffffffffff811115612efd57612efc612846565b5b612f0987828801612e64565b91505092959194509250565b60008060408385031215612f2c57612f2b612841565b5b6000612f3a85828601612a8e565b9250506020612f4b85828601612a8e565b9150509250929050565b7f4e487b7100000000000000000000000000000000000000000000000000000000600052602260045260246000fd5b60006002820490506001821680612f9c57607f821691505b602082108103612faf57612fae612f55565b5b50919050565b7f4552433732313a20617070726f76616c20746f2063757272656e74206f776e6560008201527f7200000000000000000000000000000000000000000000000000000000000000602082015250565b6000613011602183612911565b915061301c82612fb5565b604082019050919050565b6000602082019050818103600083015261304081613004565b9050919050565b7f4552433732313a20617070726f76652063616c6c6572206973206e6f7420746f60008201527f6b656e206f776e6572206f7220617070726f76656420666f7220616c6c000000602082015250565b60006130a3603d83612911565b91506130ae82613047565b604082019050919050565b600060208201905081810360008301526130d281613096565b9050919050565b7f4e487b7100000000000000000000000000000000000000000000000000000000600052601160045260246000fd5b6000613113826129b8565b915061311e836129b8565b9250828201905080821115613136576131356130d9565b5b92915050565b6000613147826129b8565b9150613152836129b8565b925082820390508181111561316a576131696130d9565b5b92915050565b60008151905061317f81612d85565b92915050565b60006020828403121561319b5761319a612841565b5b60006131a984828501613170565b91505092915050565b7f4552433732313a2063616c6c6572206973206e6f7420746f6b656e206f776e6560008201527f72206f7220617070726f76656400000000000000000000000000000000000000602082015250565b600061320e602d83612911565b9150613219826131b2565b604082019050919050565b6000602082019050818103600083015261323d81613201565b9050919050565b7f455243373231456e756d657261626c653a206f776e657220696e646578206f7560008201527f74206f6620626f756e6473000000000000000000000000000000000000000000602082015250565b60006132a0602b83612911565b91506132ab82613244565b604082019050919050565b600060208201905081810360008301526132cf81613293565b9050919050565b600081905092915050565b60006132ec82612906565b6132f681856132d6565b9350613306818560208601612922565b80840191505092915050565b600061331e82846132e1565b915081905092915050565b600061333582856132e1565b915061334182846132e1565b91508190509392505050565b600081905092915050565b50565b600061336860008361334d565b915061337382613358565b600082019050919050565b60006133898261335b565b9150819050919050565b7f4661696c656420746f2073656e64206574686572000000000000000000000000600082015250565b60006133c9601483612911565b91506133d482613393565b602082019050919050565b600060208201905081810360008301526133f8816133bc565b9050919050565b7f455243373231456e756d657261626c653a20676c6f62616c20696e646578206f60008201527f7574206f6620626f756e64730000000000000000000000000000000000000000602082015250565b600061345b602c83612911565b9150613466826133ff565b604082019050919050565b6000602082019050818103600083015261348a8161344e565b9050919050565b7f4e487b7100000000000000000000000000000000000000000000000000000000600052603260045260246000fd5b7f4552433732313a20696e76616c696420746f6b656e2049440000000000000000600082015250565b60006134f6601883612911565b9150613501826134c0565b602082019050919050565b60006020820190508181036000830152613525816134e9565b9050919050565b7f4552433732313a2061646472657373207a65726f206973206e6f74206120766160008201527f6c6964206f776e65720000000000000000000000000000000000000000000000602082015250565b6000613588602983612911565b91506135938261352c565b604082019050919050565b600060208201905081810360008301526135b78161357b565b9050919050565b7f7b226e616d65223a220000000000000000000000000000000000000000000000600082015250565b60006135f46009836132d6565b91506135ff826135be565b600982019050919050565b7f222c20226465736372697074696f6e223a22416e206475636b207369676e616c60008201527f6c696e6720676f6f646c75636b21222c20000000000000000000000000000000602082015250565b60006136666031836132d6565b91506136718261360a565b603182019050919050565b7f2261747472696275746573223a205b7b2274726169745f74797065223a20226360008201527f6f6f6c6e657373222c202276616c7565223a203130307d5d2c2022696d61676560208201527f223a220000000000000000000000000000000000000000000000000000000000604082015250565b60006136fe6043836132d6565b91506137098261367c565b604382019050919050565b60008190508160005260206000209050919050565b6000815461373681612f84565b61374081866132d6565b9450600182166000811461375b5760018114613770576137a3565b60ff19831686528115158202860193506137a3565b61377985613714565b60005b8381101561379b5781548189015260018201915060208101905061377c565b838801955050505b50505092915050565b7f227d000000000000000000000000000000000000000000000000000000000000600082015250565b60006137e26002836132d6565b91506137ed826137ac565b600282019050919050565b6000613803826135e7565b915061380f82856132e1565b915061381a82613659565b9150613825826136f1565b91506138318284613729565b915061383c826137d5565b91508190509392505050565b7f4f776e61626c653a206e6577206f776e657220697320746865207a65726f206160008201527f6464726573730000000000000000000000000000000000000000000000000000602082015250565b60006138a4602683612911565b91506138af82613848565b604082019050919050565b600060208201905081810360008301526138d381613897565b9050919050565b7f4552433732313a207472616e736665722066726f6d20696e636f72726563742060008201527f6f776e6572000000000000000000000000000000000000000000000000000000602082015250565b6000613936602583612911565b9150613941826138da565b604082019050919050565b6000602082019050818103600083015261396581613929565b9050919050565b7f4552433732313a207472616e7366657220746f20746865207a65726f2061646460008201527f7265737300000000000000000000000000000000000000000000000000000000602082015250565b60006139c8602483612911565b91506139d38261396c565b604082019050919050565b600060208201905081810360008301526139f7816139bb565b9050919050565b7f4e487b7100000000000000000000000000000000000000000000000000000000600052601260045260246000fd5b6000613a38826129b8565b9150613a43836129b8565b925082613a5357613a526139fe565b5b828204905092915050565b6000613a69826129b8565b9150613a74836129b8565b9250828202613a82816129b8565b91508282048414831517613a9957613a986130d9565b5b5092915050565b7f4f776e61626c653a2063616c6c6572206973206e6f7420746865206f776e6572600082015250565b6000613ad6602083612911565b9150613ae182613aa0565b602082019050919050565b60006020820190508181036000830152613b0581613ac9565b9050919050565b7f4552433732313a20617070726f766520746f2063616c6c657200000000000000600082015250565b6000613b42601983612911565b9150613b4d82613b0c565b602082019050919050565b60006020820190508181036000830152613b7181613b35565b9050919050565b7f4552433732313a207472616e7366657220746f206e6f6e20455243373231526560008201527f63656976657220696d706c656d656e7465720000000000000000000000000000602082015250565b6000613bd4603283612911565b9150613bdf82613b78565b604082019050919050565b60006020820190508181036000830152613c0381613bc7565b9050919050565b7f455243373231456e756d657261626c653a20636f6e736563757469766520747260008201527f616e7366657273206e6f7420737570706f727465640000000000000000000000602082015250565b6000613c66603583612911565b9150613c7182613c0a565b604082019050919050565b60006020820190508181036000830152613c9581613c59565b9050919050565b600081519050919050565b600082825260208201905092915050565b6000613cc382613c9c565b613ccd8185613ca7565b9350613cdd818560208601612922565b613ce68161294c565b840191505092915050565b6000608082019050613d066000830187612a4d565b613d136020830186612a4d565b613d206040830185612ae3565b8181036060830152613d328184613cb8565b905095945050505050565b600081519050613d4c81612877565b92915050565b600060208284031215613d6857613d67612841565b5b6000613d7684828501613d3d565b91505092915050565b7f4552433732313a206d696e7420746f20746865207a65726f2061646472657373600082015250565b6000613db5602083612911565b9150613dc082613d7f565b602082019050919050565b60006020820190508181036000830152613de481613da8565b9050919050565b7f4552433732313a20746f6b656e20616c7265616479206d696e74656400000000600082015250565b6000613e21601c83612911565b9150613e2c82613deb565b602082019050919050565b60006020820190508181036000830152613e5081613e14565b9050919050565b7f4e487b7100000000000000000000000000000000000000000000000000000000600052603160045260246000fdfe4142434445464748494a4b4c4d4e4f505152535455565758595a6162636465666768696a6b6c6d6e6f707172737475767778797a303132333435363738392b2fa26469706673582212203b06767b01571c8e19d03b66aae6278301a01cfda0cbc8cd5e745749a31d7fd364736f6c634300081400334142434445464748494a4b4c4d4e4f505152535455565758595a6162636465666768696a6b6c6d6e6f707172737475767778797a303132333435363738392b2f",
  "devdoc": {
    "events": {
      "Approval(address,address,uint256)": {
        "details": "Emitted when `owner` enables `approved` to manage the `tokenId` token."
      },
      "ApprovalForAll(address,address,bool)": {
        "details": "Emitted when `owner` enables or disables (`approved`) `operator` to manage all of its assets."
      },
      "Transfer(address,address,uint256)": {
        "details": "Emitted when `tokenId` token is transferred from `from` to `to`."
      }
    },
    "kind": "dev",
    "methods": {
      "approve(address,uint256)": {
        "details": "See {IERC721-approve}."
      },
      "balanceOf(address)": {
        "details": "See {IERC721-balanceOf}."
      },
      "getApproved(uint256)": {
        "details": "See {IERC721-getApproved}."
      },
      "isApprovedForAll(address,address)": {
        "details": "See {IERC721-isApprovedForAll}."
      },
      "name()": {
        "details": "See {IERC721Metadata-name}."
      },
      "owner()": {
        "details": "Returns the address of the current owner."
      },
      "ownerOf(uint256)": {
        "details": "See {IERC721-ownerOf}."
      },
      "renounceOwnership()": {
        "details": "Leaves the contract without owner. It will not be possible to call `onlyOwner` functions. Can only be called by the current owner. NOTE: Renouncing ownership will leave the contract without an owner, thereby disabling any functionality that is only available to the owner."
      },
      "safeTransferFrom(address,address,uint256)": {
        "details": "See {IERC721-safeTransferFrom}."
      },
      "safeTransferFrom(address,address,uint256,bytes)": {
        "details": "See {IERC721-safeTransferFrom}."
      },
      "setApprovalForAll(address,bool)": {
        "details": "See {IERC721-setApprovalForAll}."
      },
      "supportsInterface(bytes4)": {
        "details": "See {IERC165-supportsInterface}."
      },
      "symbol()": {
        "details": "See {IERC721Metadata-symbol}."
      },
      "tokenByIndex(uint256)": {
        "details": "See {IERC721Enumerable-tokenByIndex}."
      },
      "tokenOfOwnerByIndex(address,uint256)": {
        "details": "See {IERC721Enumerable-tokenOfOwnerByIndex}."
      },
      "totalSupply()": {
        "details": "See {IERC721Enumerable-totalSupply}."
      },
      "transferFrom(address,address,uint256)": {
        "details": "See {IERC721-transferFrom}."
      },
      "transferOwnership(address)": {
        "details": "Transfers ownership of the contract to a new account (`newOwner`). Can only be called by the current owner."
      }
    },
    "version": 1
  },
  "userdoc": {
    "kind": "user",
    "methods": {},
    "version": 1
  },
  "storageLayout": {
    "storage": [
      {
        "astId": 138,
        "contract": "contracts/nft.sol:Nft",
        "label": "_name",
        "offset": 0,
        "slot": "0",
        "type": "t_string_storage"
      },
      {
        "astId": 140,
        "contract": "contracts/nft.sol:Nft",
        "label": "_symbol",
        "offset": 0,
        "slot": "1",
        "type": "t_string_storage"
      },
      {
        "astId": 144,
        "contract": "contracts/nft.sol:Nft",
        "label": "_owners",
        "offset": 0,
        "slot": "2",
        "type": "t_mapping(t_uint256,t_address)"
      },
      {
        "astId": 148,
        "contract": "contracts/nft.sol:Nft",
        "label": "_balances",
        "offset": 0,
        "slot": "3",
        "type": "t_mapping(t_address,t_uint256)"
      },
      {
        "astId": 152,
        "contract": "contracts/nft.sol:Nft",
        "label": "_tokenApprovals",
        "offset": 0,
        "slot": "4",
        "type": "t_mapping(t_uint256,t_address)"
      },
      {
        "astId": 158,
        "contract": "contracts/nft.sol:Nft",
        "label": "_operatorApprovals",
        "offset": 0,
        "slot": "5",
        "type": "t_mapping(t_address,t_mapping(t_address,t_bool))"
      },
      {
        "astId": 1188,
        "contract": "contracts/nft.sol:Nft",
        "label": "_ownedTokens",
        "offset": 0,
        "slot": "6",
        "type": "t_mapping(t_address,t_mapping(t_uint256,t_uint256))"
      },
      {
        "astId": 1192,
        "contract": "contracts/nft.sol:Nft",
        "label": "_ownedTokensIndex",
        "offset": 0,
        "slot": "7",
        "type": "t_mapping(t_uint256,t_uint256)"
      },
      {
        "astId": 1195,
        "contract": "contracts/nft.sol:Nft",
        "label": "_allTokens",
        "offset": 0,
        "slot": "8",
        "type": "t_array(t_uint256)dyn_storage"
      },
      {
        "astId": 1199,
        "contract": "contracts/nft.sol:Nft",
        "label": "_allTokensIndex",
        "offset": 0,
        "slot": "9",
        "type": "t_mapping(t_uint256,t_uint256)"
      },
      {
        "astId": 7,
        "contract": "contracts/nft.sol:Nft",
        "label": "_owner",
        "offset": 0,
        "slot": "10",
        "type": "t_address"
      },
      {
        "astId": 3312,
        "contract": "contracts/nft.sol:Nft",
        "label": "tokenCounter",
        "offset": 0,
        "slot": "11",
        "type": "t_uint256"
      },
      {
        "astId": 3315,
        "contract": "contracts/nft.sol:Nft",
        "label": "whitelist",
        "offset": 0,
        "slot": "12",
        "type": "t_contract(Whitelist)3682"
      },
      {
        "astId": 3317,
        "contract": "contracts/nft.sol:Nft",
        "label": "reservedTokens",
        "offset": 0,
        "slot": "13",
        "type": "t_uint256"
      },
      {
        "astId": 3319,
        "contract": "contracts/nft.sol:Nft",
        "label": "reservedTokensClaimed",
        "offset": 0,
        "slot": "14",
        "type": "t_uint256"
      },
      {
        "astId": 3321,
        "contract": "contracts/nft.sol:Nft",
        "label": "imageURI",
        "offset": 0,
        "slot": "15",
        "type": "t_string_storage"
      }
    ],
    "types": {
      "t_address": {
        "encoding": "inplace",
        "label": "address",
        "numberOfBytes": "20"
      },
      "t_array(t_uint256)dyn_storage": {
        "base": "t_uint256",
        "encoding": "dynamic_array",
        "label": "uint256[]",
        "numberOfBytes": "32"
      },
      "t_bool": {
        "encoding": "inplace",
        "label": "bool",
        "numberOfBytes": "1"
      },
      "t_contract(Whitelist)3682": {
        "encoding": "inplace",
        "label": "contract Whitelist",
        "numberOfBytes": "20"
      },
      "t_mapping(t_address,t_bool)": {
        "encoding": "mapping",
        "key": "t_address",
        "label": "mapping(address => bool)",
        "numberOfBytes": "32",
        "value": "t_bool"
      },
      "t_mapping(t_address,t_mapping(t_address,t_bool))": {
        "encoding": "mapping",
        "key": "t_address",
        "label": "mapping(address => mapping(address => bool))",
        "numberOfBytes": "32",
        "value": "t_mapping(t_address,t_bool)"
      },
      "t_mapping(t_address,t_mapping(t_uint256,t_uint256))": {
        "encoding": "mapping",
        "key": "t_address",
        "label": "mapping(address => mapping(uint256 => uint256))",
        "numberOfBytes": "32",
        "value": "t_mapping(t_uint256,t_uint256)"
      },
      "t_mapping(t_address,t_uint256)": {
        "encoding": "mapping",
        "key": "t_address",
        "label": "mapping(address => uint256)",
        "numberOfBytes": "32",
        "value": "t_uint256"
      },
      "t_mapping(t_uint256,t_address)": {
        "encoding": "mapping",
        "key": "t_uint256",
        "label": "mapping(uint256 => address)",
        "numberOfBytes": "32",
        "value": "t_address"
      },
      "t_mapping(t_uint256,t_uint256)": {
        "encoding": "mapping",
        "key": "t_uint256",
        "label": "mapping(uint256 => uint256)",
        "numberOfBytes": "32",
        "value": "t_uint256"
      },
      "t_string_storage": {
        "encoding": "bytes",
        "label": "string",
        "numberOfBytes": "32"
      },
      "t_uint256": {
        "encoding": "inplace",
        "label": "uint256",
        "numberOfBytes": "32"
      }
    }
  }
}